:100000000C942A000C9447000C9447000C94470071
:100010000C9447000C9447000C9447000C94470044
:100020000C9447000C9447000C9447000C94470034
:100030000C9447000C9447000C9447000C94470024
:100040000C9447000C9447000C9447000C94470014
:100050000C94470011241FBECFE5D4E0DEBFCDBF16
:1000600010E0A0E6B0E0E2E1FAE002C005900D92F7
:10007000A63FB107D9F711E0A6EFB0E001C01D928D
:10008000AA30B107E1F70E94A6040C9407050C946E
:1000900000000F931F93883511F400E004C000E0C6
:1000A000883709F001E0693041F481E067E041E020
:1000B0000E94D50181E067E00BC0162F1150183067
:1000C00050F483E0612F41E00E94D50183E0612F6D
:1000D000402F0E9448021F910F91089581E067E030
:1000E00041E00E94480283E06FEF0E941D030895E3
:1000F00081E067E041E00E94D50183E06FEF0E945C
:10010000F3028FEF81BB08950E94780081E067E0E1
:1001100040E00E94480283E060E00E941D030895D1
:100120001F93182F81E061E040E00E94480281E0C7
:1001300060E040E00E94480280E0612F0E941D03C1
:1001400081E062E041E00E94480284EF91E0019783
:10015000F1F781E062E040E00E9448021F910895BB
:100160000F931F93CF93DF93162F882311F480E80A
:1001700003C0813019F480EC0E949000103160F4CB
:10018000C0E0D0E0012F10E004C084E10E949000A4
:100190002196C017D107CCF3DF91CF911F910F911A
:1001A000089581E00E94900008951F93182F81E028
:1001B00061E040E00E94480281E060E041E00E948E
:1001C000480280E0612F0E941D0381E062E041E06F
:1001D0000E94480284EF91E00197F1F781E062E02C
:1001E00040E00E9448021F9108950F931F93CF9300
:1001F000DF938C01C0E0D0E00DC0C031D10521F407
:1002000081E060E00E94B000F80181918F010E94BE
:10021000D5002196F8018081882379F7DF91CF916D
:100220001F910F9108950F931F93DF93CF93CDB735
:10023000DEB72A970FB6F894DEBF0FBECDBF90E0B1
:100240008E010F5F1F4FB8014AE050E00E94C204C8
:10025000C8010E94F5002A960FB6F894DEBF0FBEC3
:10026000CDBFCF91DF911F910F91089581E060E0A4
:1002700041E00E94D50181E061E041E00E94D501AA
:1002800081E062E041E00E94D50180E06FEF0E94D2
:10029000F30280E197E20197F1F788E30E94900072
:1002A0008CE00E94900081E00E9490000895B0EFE1
:1002B000AFEF48E853E120E137E2FFEEEFED7FEBEF
:1002C0006FE7B4BBA5BB85B38F7085BB000083B35C
:1002D0008F708F30C1F7CA010197F1F783B38F7028
:1002E0008F30C9F3C9010197F1F783B38F708F3055
:1002F00091F3F5BB000083B38F708F3029F08093AA
:10030000F6001092F70020C0E5BB000083B38F70A9
:100310008F3021F08093F60081E014C075BB00009F
:1003200083B38F708F3021F08093F60082E00AC093
:1003300065BB000083B38F708F3009F4C2CF809308
:10034000F60083E08093F7008091F6008E3051F440
:10035000E091F700F0E0EE0FFF1FEE0FFF1FEA53F2
:10036000FF4F18C08D3059F4E091F700F0E0EE0F28
:10037000FF1FEE0FFF1FEA53FF4F81810895E091A9
:10038000F7008B3049F4F0E0EE0FFF1FEE0FFF1F78
:10039000E853FF4F80810895F0E0EE0FFF1FEE0F4E
:1003A000FF1FEA53FF4F838108954423D1F5813025
:1003B000A1F0813030F08230E1F0833009F067C085
:1003C00024C02AB381E090E002C0880F991F6A958B
:1003D000E2F7809582238ABB089527B381E090E0FD
:1003E00002C0880F991F6A95E2F78095822387BB28
:1003F000089524B381E090E002C0880F991F6A95A8
:10040000E2F78095822384BB089521B381E090E0D8
:1004100002C0880F991F6A95E2F78095822381BBFD
:1004200008954130A1F5813091F0813028F082307B
:10043000C9F0833061F521C02AB381E090E002C0A9
:10044000880F991F6A95E2F7282B2ABB089527B3D6
:1004500081E090E002C0880F991F6A95E2F7282B8F
:1004600027BB089524B381E090E002C0880F991F54
:100470006A95E2F7282B24BB089521B381E090E030
:1004800002C0880F991F6A95E2F7282B21BB0895B7
:100490004423D1F58130A1F0813030F08230E1F099
:1004A000833009F067C024C02BB381E090E002C024
:1004B000880F991F6A95E2F7809582238BBB089578
:1004C00028B381E090E002C0880F991F6A95E2F797
:1004D0008095822388BB089525B381E090E002C017
:1004E000880F991F6A95E2F78095822385BB08954E
:1004F00022B381E090E002C0880F991F6A95E2F76D
:100500008095822382BB08954130A1F5813091F01E
:10051000813028F08230C9F0833061F521C02BB3DF
:1005200081E090E002C0880F991F6A95E2F7282BBE
:100530002BBB089528B381E090E002C0880F991F7B
:100540006A95E2F7282B28BB089525B381E090E057
:1005500002C0880F991F6A95E2F7282B25BB0895E2
:1005600022B381E090E002C0880F991F6A95E2F7FC
:10057000282B22BB0895FA01813091F0813028F0B8
:100580008230C9F0833071F522C089B390E002C097
:10059000959587956A95E2F7817089BB89B315C0F7
:1005A00086B390E002C0959587956A95E2F78170D1
:1005B00086BB86B30AC083B390E002C09595879549
:1005C0006A95E2F7817083BB83B38083089580B31B
:1005D00090E002C0959587956A95E2F7817080BB9F
:1005E00080B380830895662389F4813049F0813097
:1005F00028F0823039F08330F9F406C01ABA089531
:1006000017BA089514BA089511BA08956130A1F483
:10061000813051F0813028F0823049F0833061F42C
:1006200009C08FEF8ABB08958FEF87BB08958FEFC6
:1006300084BB08958FEF81BB0895813049F08130EC
:1006400028F0823039F0833041F406C06BBB089546
:1006500068BB089565BB089562BB0895FB018130B6
:1006600049F0813028F0823039F0833051F407C0EE
:1006700089B303C086B301C083B38083089580B378
:100680008083089580E090E022E0FC01EF5FFE4F60
:100690001082FC01E850FF4F2083019689309105BC
:1006A000A1F70895E1E0F1E0E80FF11D81E080831A
:1006B0000895E1E0F1E0E80FF11D808108958837A9
:1006C00011F0883539F4E62FF0E0E850FF4F81E073
:1006D000808308958F3611F08F3429F4E62FF0E0EF
:1006E000E850FF4F10820895DF93CF93CDB7DEB768
:1006F00068970FB6F894DEBF0FBECDBFDE0111962E
:10070000E6EDF0E088E101900D928150E1F7DE0125
:1007100011969E01275E3F4FEC91F0E0E850FF4FAD
:1007200090811196EC911197F0E0E850FF4F808195
:10073000981759F41296EC911297F0E0E850FF4F99
:100740008081981711F4923029F41396A217B307F9
:1007500019F792E0892F68960FB6F894DEBF0FBEA6
:10076000CDBFCF91DF9108958F929F92AF92BF92AC
:10077000CF92DF92EF92FF920F931F93DF93CF936D
:10078000CDB7DEB727970FB6F894DEBF0FBECDBF4B
:10079000D82EDE011196EEEEF0E087E001900D928A
:1007A0008150E1F70E94D1008D2D0E94D50080E696
:1007B00090E00E94F50081E060E00E94B0008CE6CD
:1007C00090E00E94F50080E197E229E130E0F90134
:1007D0003197F1F70197D9F70E945701F82E30EDC4
:1007E000C32EC80E2FECE22EE80E8C2D0E941301B2
:1007F0008E010F5F1F4F99E1892E912C88E0A82E62
:10080000B12CAC0EBD1EF8018081F816C1F40E9417
:10081000D1008CE790E00E94F50081E060E00E944A
:10082000B00088E890E00E94F50080E197E2F401D2
:100830003197F1F70197D9F78D2D0E94B4030F5F1F
:100840001F4F0A151B05F9F684ED90E30197F1F7A8
:100850008E2D0E945903882341F48E2D0E9452034D
:100860008D2D6E2D0E945F031AC00E94D1008CE76F
:1008700090E00E94F50081E060E00E94B00088E80E
:1008800090E00E94F50080E197E229E130E0F90173
:100890003197F1F70197D9F78D2D0E94B4038D2D73
:1008A0006C2D0E94490080E593EC0197F1F72796A3
:1008B0000FB6F894DEBF0FBECDBFCF91DF911F9171
:1008C0000F91FF90EF90DF90CF90BF90AF909F90EF
:1008D0008F90089580FF02C088E501C08FE40E94D8
:1008E000B40308951F93182F0E94D10086E990E069
:1008F0000E94F50081E060E00E94B000112319F42D
:1009000083EA90E009C0113019F48DEA90E004C048
:10091000123021F487EB90E00E94F50088E893E123
:1009200029E130E0F9013197F1F70197D9F70E94F9
:10093000840088E893E129E130E0F9013197F1F78B
:100940000197D9F70E946E001F9108951F930E948E
:1009500036010E9442030E94740311E00E94D100FC
:100960000E947403882331F0813021F08230B1F786
:100970001A3018F00E947204F1CF812F0E946A048D
:100980001F5FECCFFB019F01E8944230C4F0453279
:10099000B4F44A3029F497FB1EF4909581959F4F4B
:1009A000642F77270E94F304805D8A330CF0895D01
:1009B0008193CB010097A1F716F45DE25193108269
:1009C000C9010C94E304DC01FC01672F71917723CA
:1009D000E1F7329704C07C916D9370836291AE17FA
:1009E000BF07C8F30895AA1BBB1B51E107C0AA1F8C
:1009F000BB1FA617B70710F0A61BB70B881F991FC0
:100A00005A95A9F780959095BC01CD010895F89469
:020A1000FFCF16
:100A120020697320506C6179696E670043686F6F5B
:100A22007365204E756D6265723A200057726F6E63
:100A32006720506C61636500547279204167616977
:100A42006E202E2E210047616D65204F7665722043
:100A52002E2E004F2057696E202E2E21005820572F
:100A6200696E202E2E21004E6F2057696E6E6572C0
:100A720073202E2E2100373431203835323039366A
:100A8200333D2F2A2D2B000102030405060708001F
:100A920003060104070205080004080204062A2FBF
:060AA2002B2D303D200069
:00000001FF
